:020000040000FA
:06000000C7EF11F0120031
:020006001200E6
:08000800F2A402D0DDEF0AF0C2
:100010009EA202D0A5EF0BF09EAA02D036EF0FF001
:080020001200D08EF28E1200D6
:080028000A003F250000320D23
:100030000000020000003D250000300D000002001D
:100040000000322500001B0D00000B0000003125D0
:100050000000370D00000100000011250000000F16
:1000600000002000000003250000000100000E0039
:10007000000077240000000900008C0000005C24D0
:100080000000000D00001B00000044240000200FB1
:10009000000018000000C6230000000B00007E00D6
:0200A00000005E
:0E00A200D9CFE6FFE1CFD9FF050EE126FE0E15
:1000B000DB50080802E2000E68D0FE0EDBCF11FD17
:1000C000DF6A0D011151DF5C0AE2DF50EA6A090FB5
:1000D000E96E0D0EEA2225CDEFFFDF2AF2D70D01E2
:1000E000010E176F0D0E186FDF6A0B0EDF5C49E211
:1000F000010EDB6AFE0EDB50F36E010EDBCFF4FF68
:10010000F350F45C15E2DF50EA6A1B0FE96E0D0E46
:10011000EA22EF50E66E010EDB50EA6A010FE96E4B
:100120000D0EEA22E552E750EF6E010EDB2AE2D710
:10013000020EDB6A640EF36E020EDBCFF4FFF350A7
:10014000F45C1DE22ED8030EF36E030EF3CFDBFF3B
:10015000040EDB6A030EDBCF10F0DB06040EDBCFF0
:1001600011F001E2DB061050111006E0040EE66EFD
:1001700098EC11F0E552EED7020EDB2ADBD7DF2A2E
:10018000B4D70D01126B010E00D0106E050EE15CAC
:1001900002E2E16AE552E16E1050E552E7CFD9FF85
:1001A00012000D010051010A19E0010A01E04ED0D0
:1001B0000D0112510D01EA6A1725E96E1851EA2264
:1001C000EF50E66E59D9E5520D01122B0D01115178
:1001D0000D01125D02E30D01126B39D00D011251B8
:1001E0000D01EA6A1725E96E1851EA22EF50E66E12
:1001F00043D9E5520D01122B0D0111510D01125D74
:1002000002E30D01126B0D01132B000E14230D01DF
:1002100015510D01135D0D0116510D01145915E312
:100220000D01136B146B010E0D01171902E10D0E78
:10023000181906E10D01090E176F0D0E186F05D084
:100240000D01010E176F0D0E186F01D000D01200B6
:10025000D9CFE6FFE1CFD9FFE652DF6ADF6A0D01B1
:100260001151DF5C16E2DF50E76EFD0EDBCFE9FFD8
:10027000FE0EDBCFEAFFE750E926000EEA22EF5040
:10028000E66E65D9E552000902E1000E43D0DF2A8F
:10029000E6D7DF6A0D011151DF5C38E2DF50E76E0F
:1002A000FD0EDBCFE9FFFE0EDBCFEAFFE750E926CC
:1002B000000EEA22EF50200809E1DF50EA6A010F40
:1002C000E96E0D0EEA2225CDEFFF1ED0DF50E76E5E
:1002D000FD0EDBCFE9FFFE0EDBCFEAFFE750E9269C
:1002E000000EEA22EF50D00FEA6A1B0FE96E0D0EE6
:1002F000EA22EF50E66EDF50EA6A010FE96E0D0E5A
:10030000EA22E552E750EF6EDF2AC4D70D01126BE7
:10031000010E00D0E552E552E7CFD9FF1200D9CF48
:10032000E6FFE1CFD9FFE652DF6ADF6A0D01115126
:10033000DF5C19E2DF50E76EFD0EDBCFE9FFFE0E5A
:10034000DBCFEAFFE750E926000EEA22EF50E66E27
:10035000DF50EA6A010FE96E0D0EEA22E552E7501E
:10036000EF6EDF2AE3D70D01126BE552E552E7CFBE
:10037000D9FF1200D9CFE6FFE1CFD9FFE652DF6AFD
:10038000FE0EDBCF10F00D011151D880105402E2A7
:10039000000E2DD0FD0EDBCFE6FFD9D8E5520009C7
:1003A00002E1000E24D0FD0EDB5020080AE1FE0E13
:1003B000DB50EA6A010FE96E0D0EEA2225CDEFFF50
:1003C00014D0FD0EDB50D00FEA6A1B0FE96E0D0E44
:1003D000EA22EF50E66EFE0EDB50EA6A010FE96E8C
:1003E0000D0EEA22E552E750EF6E010E00D0E55205
:1003F000E552E7CFD9FF1200D9CFE6FFE1CFD9FF11
:10040000FD0EDBCF15FDFE0EDBCF16FD010E0F0B33
:100410000D0105E0D89016331533E806FBE10D0118
:10042000136B146B0D01010E006FE552E7CFD9FF7E
:1004300012000D01010E176F0D0E186F0D01006BEC
:100440001200D9CFE6FFE1CFD9FFE652DF6A0D01F6
:100450001151DF5C0AE2DF50EA6A010FE96E0D0E0E
:10046000EA2225CDEFFFDF2AF2D70D01126BE5520C
:10047000E552E7CFD9FF1200D9CFE6FFE1CFD9FF90
:10048000808080828084808682808282828482864C
:10049000FE0EDB1C836E0D011251070A1DE0010ADE
:1004A00019E0030A15E0010A11E0070A0DE0010A4C
:1004B00009E0030A05E0010A01E010D080900FD0A6
:1004C00080920DD080940BD0809609D0829007D076
:1004D000829205D0829403D0829601D000D0E5525A
:1004E000E7CFD9FF1200D9CFE6FFE1CFD9FF020E47
:1004F000E126FE0EDB50DF6EFE0EDBCFE6FFFD0ECB
:10050000DB50E552E724DF5C18E2DF50EA6A010FB6
:10051000E96E0D0EEA22010EEFCFDBFF010EDB507C
:100520008009E66EDF50EA6A010FE96E0D0EEA22DD
:10053000E552E750EF6EDF2ADFD7020EE15C02E200
:10054000E16AE552E16EE552E7CFD9FF1200D9CF5B
:10055000E6FFE1CFD9FFE652DF6AFE0EDB5020084E
:1005600003E1010EDF6E0ED0300EF36EFE0EDBCF18
:10057000F4FFF350F45C06E3FE0EDB50390802E3AF
:10058000010EDF6EDF5000D0E552E552E7CFD9FF14
:100590001200D9CFE6FFE1CFD9FF020EE126DF6AD4
:1005A000010EDB6ADF6AFB0EDB50DF5C16E2DF5018
:1005B000E76EFD0EDBCFE9FFFE0EDBCFEAFFE75073
:1005C000E926000EEA22EF50E66EC1DFE55200098F
:1005D00002E1000E4DD0DF2AE6D7FC0EDB50DF6EC5
:1005E000FB0EDBCFE6FFFC0EDB50E552E724DF5CC1
:1005F0003BE2DF50E76EFD0EDBCFE9FFFE0EDBCF07
:10060000EAFFE750E926000EEA22EF50200809E150
:10061000DF50EA6A010FE96E0D0EEA2225CDEFFFE9
:100620001FD0010EDB50E76EFD0EDBCFE9FFFE0EA3
:10063000DBCFEAFFE750E926000EEA22EF50D00FA9
:10064000EA6A1B0FE96E0D0EEA22EF50E66EDF50EC
:10065000EA6A010FE96E0D0EEA22E552E750EF6EED
:10066000DF2A010EDB2ABCD70D01126B010E00D070
:10067000106E020EE15C02E2E16AE552E16E10509A
:10068000E552E7CFD9FF1200D9CFE6FFE1CFD9FF7E
:10069000E652FD0EDBCF15FDFE0EDBCF16FD010E83
:1006A0000F0B0D0105E0D89016331533E806FBE17A
:1006B0000D01136B146BFC0EDB500D01196F1A6BDF
:1006C000DF6A0D011151DF5C1DE2DF50106E116A0F
:1006D0000D011951101802E11A51111811E0DF50E3
:1006E000EA6A010FE96E0D0EEA22EF50E66EDF5066
:1006F000EA6A090FE96E0D0EEA22E552E750EF6E45
:10070000DF2ADFD7090E0D011925E96E0D0E0D0147
:100710001A21EA6EEF6A0D01010E006FE552E552F3
:06072000E7CFD9FF120033
:0A072600DACFE4FFE2CFDAFFE9CFFB
:10073000E4FFEACFE4FFF6CFE4FFF7CFE4FFF5CF25
:10074000E4FFF3CFE4FFF4CFE4FFFACFE4FF00EEE1
:1007500000F0100EE80403E3EECFE4FFFBD700EE59
:1007600010F0090EE80403E3EECFE4FFFBD7E652F6
:10077000D9CFE6FFE1CFD9FFE652F0EC10F0DF6E03
:100780000B01BD51BD2BEA6AC00FE96E0B0EEA22C8
:10079000DFCFEFFF3C0E0B01BD5D02E30B01BD6B34
:1007A0000B01BF2BA49AE552E552E7CFD9FFE552E2
:1007B00000EE18F0090EE80403E3E5CFEDFFFBD7E8
:1007C00000EE0FF0100EE80403E3E5CFEDFFFBD7DA
:1007D000E5CFFAFFE5CFF4FFE5CFF3FFE5CFF5FF77
:1007E000E5CFF7FFE5CFF6FFE5CFEAFFE5CFE9FF7D
:1007F000E5CFDAFF1100DACFE4FFE2CFDAFFE9CF8D
:10080000E4FFEACFE4FFE652D9CFE6FFE1CFD9FF1C
:10081000E6520B01025104E1ACA2FED7AC9A21D002
:100820000B010151EA6A030FE96E0B0EEA22EFCFCA
:10083000DFFFDF50AD6E0B01012B3C0E0B01015DA4
:1008400002E30B01016B000E0B01E76E0219E8AE2B
:1008500002D0023503D0E750D880025502E20B01E6
:100860000207E552E552E7CFD9FFE552E5CFEAFFAF
:10087000E5CFE9FFE5CFDAFF1100DACFE4FFE2CF01
:10088000DAFFE9CFE4FFEACFE4FFE652D9CFE6FF93
:10089000E1CFD9FFE6520B01805104E172A2FED7ED
:1008A000729A21D00B017F51EA6A810FE96E0B0E1B
:1008B000EA22EFCFDFFFDF50736E0B017F2B3C0E80
:1008C0000B017F5D02E30B017F6B000E0B01E76EF6
:1008D0008019E8AE02D0803503D0E750D88080552B
:1008E00002E20B018007E552E552E7CFD9FFE5525E
:1008F000E5CFEAFFE5CFE9FFE5CFDAFF1100D9CF79
:10090000E6FFE1CFD9FFE6527C0EDF6E330EE66ED6
:10091000E66ADFCFE6FF65EC10F0E552E552E552FE
:10092000AC8AAC9E9D8A9F88E552E552E7CFD9FFFD
:100930001200D9CFE6FFE1CFD9FFE6527C0EDF6E81
:10094000670EE66EE66ADFCFE6FF29EC10F0E552AF
:10095000E552E552D08E718E728A729EA38AA58A64
:10096000E552E552E7CFD9FF1200D9CFE6FFE1CF3C
:10097000D9FFACA2FED70B010051002BEA6A030F8E
:10098000E96E0B0EEA22FE0EDBCFEFFF0B01022B0E
:100990003C0E0B01005D02E30B01006B010E00D069
:1009A000E552E7CFD9FF1200D9CFE6FFE1CFD9FF5B
:1009B00072A2FED70B017E517E2BEA6A810FE96E8F
:1009C0000B0EEA22FE0EDBCFEFFF0B01802B3C0E5D
:1009D0000B017E5D02E30B017E6B010E00D0E55240
:1009E000E7CFD9FF1200D9CFE6FFE1CFD9FF060E3E
:1009F000E126010EF36E020EF3CFDBFF030EDB6A7E
:100A0000020EDBCF10F0DB06030EDBCF11F001E2AC
:100A1000DB061050111006E0040EE66E98EC11F0A3
:100A2000E552EED7000E0B01E76E0219E8AE02D0D8
:100A3000023503D0E750D880025528E20B0101515E
:100A4000EA6A030FE96E0B0EEA22010EEFCFDBFF1D
:100A5000ACA2FED7010EDB50AD6EACA2FED70B01EF
:100A6000012B3C0E0B01015D02E30B01016B000E3B
:100A70000B01E76E0219E8AE02D0023503D0E75051
:100A8000D880025502E20B010207CCD7010EF36EAB
:100A9000040EF3CFDBFF050EDB6A040EDBCF10F094
:100AA000DB06050EDBCF11F001E2DB061050111062
:100AB00006E0040EE66E98EC11F0E552EED7106EEB
:100AC000060EE15C02E2E16AE552E16E1050E55289
:100AD000E7CFD9FF1200D9CFE6FFE1CFD9FF060E4D
:100AE000E126010EF36E020EF3CFDBFF030EDB6A8D
:100AF000020EDBCF10F0DB06030EDBCF11F001E2BC
:100B0000DB061050111006E0040EE66E98EC11F0B2
:100B1000E552EED7000E0B01E76E8019E8AE02D069
:100B2000803503D0E750D880805528E20B017F51F3
:100B3000EA6A810FE96E0B0EEA22010EEFCFDBFFAE
:100B400072A2FED7010EDB50736E72A2FED70B01AC
:100B50007F2B3C0E0B017F5D02E30B017F6B000ED0
:100B60000B01E76E8019E8AE02D0803503D0E75064
:100B7000D880805502E20B018007CCD7010EF36EBE
:100B8000040EF3CFDBFF050EDB6A040EDBCF10F0A3
:100B9000DB06050EDBCF11F001E2DB061050111071
:100BA00006E0040EE66E98EC11F0E552EED7106EFA
:100BB000060EE15C02E2E16AE552E16E1050E55298
:100BC000E7CFD9FF1200D9CFE6FFE1CFD9FFE65238
:100BD000DF6AA39A000E0B01E76EBF19E8AE02D0E0
:100BE000BF3503D0E750D880BF5502E2010EDF6E5B
:100BF000A38ADF5000D0E552E552E7CFD9FF1200BB
:100C0000D9CFE6FFE1CFD9FFE652DF6A9D9A000E09
:100C10000B01E76E4119E8AE02D0413503D0E75031
:100C2000D880415502E2010EDF6E9D8ADF5000D070
:100C3000E552E552E7CFD9FF1200D9CFE6FFE1CF69
:100C4000D9FFE6529D9A0B014051402BEA6A420FB0
:100C5000E96E0B0EEA22EFCFDFFF3C0E0B01405D89
:100C600002E30B01406B000E0B01E76E4119E8AE89
:100C700002D0413503D0E750D880415502E20B0144
:100C800041079D8ADF5000D0E552E552E7CFD9FFFA
:100C90001200D9CFE6FFE1CFD9FFE652A39A0B01AC
:100CA000BE51BE2BEA6AC00FE96E0B0EEA22EFCFEF
:100CB000DFFF3C0E0B01BE5D02E30B01BE6B000EBD
:100CC0000B01E76EBF19E8AE02D0BF3503D0E75085
:100CD000D880BF5502E20B01BF079D8ADF5000D0CC
:0A0CE000E552E552E7CFD9FF1200FC
:060CEA00D9CFE6FFE1CFC7
:100CF000D9FFFE0EDBCF01F9FD0EDBCF02F9FC0EB2
:100D0000DBCF03F9FB0EDBCF04F9F90EDBCF81F962
:100D1000FA0EDBCF82F904D8E552E7CFD9FF1200F3
:100D20007FEC04F009017D6B09017E6B0901010E66
:100D3000006F09017F6B0901050E806F87C983F978
:100D400088C984F989C985F98AC986F900C98BF9E6
:100D5000120009017D6B09017E6B0901010E006F14
:100D600009017F6B0901050E806F87C983F988C966
:100D700084F989C985F98AC986F900C98BF91200F5
:100D8000D9CFE6FFE1CFD9FF060EE126DF6A1FECDF
:100D90000CF004C087F905C088F906C089F907C0BE
:100DA0008AF9ABA207D0AB98040EE66ED5EC11F031
:100DB000E552AB88830EE96E090EEA6EEE5009012A
:100DC00087190CE1EE500901881908E1EE5009017C
:100DD000891904E1EE5009018A1900E118E00901BE
:100DE000005109018B5D0BE1020E0901005D07E175
:100DF000090180070901805102E192DFD2D087C941
:100E000083F988C984F989C985F98AC986F90901EC
:100E10000051030A01E1BED0010A18E0030A01E013
:100E2000BCD000EC06F0000901E1BBD01DEC06F0DF
:100E3000DF6E09010151DF5C08E109017D6B0901E9
:100E4000020E006F0901050E806FA9D000EC06F0BC
:100E5000000901E1A6D01DEC06F0DF6E0901025188
:100E6000DF5C01E07BD0020EDB6A030EDB68D95049
:100E7000030FE66E000EDA20E66E9DD8E552E552CD
:100E8000E76E020EE7CFDBFF020EDB50020A57E0EF
:100E9000030A05E0010A01E05CD05BDF82D00901B2
:100EA000815182114AE0D950040FE66E000EDA201B
:100EB000E66E7F0EE66E090EE66E070EE66E090E12
:100EC000E66E05D082C9FAFF09018151F96EFADF99
:100ED000106E060EE15E105009017E6F0901416936
:100EE00009017E2B7FC942F909017E2BDE52020ED9
:100EF000DD6E09017E51F36E010EDBCFF4FFF3507E
:100F0000F45C1AE2040EDBCFE9FF050EDBCFEAFF4B
:100F1000EF50E66E010EDB50EA6A410FE96E090EF2
:100F2000EA22E552E750EF6E040EDB2A050E01E3DC
:100F3000DB2A010EDB2ADDD701D00BDF0BD0090144
:100F4000010E416F09017E2B7FC942F909017E2BF9
:100F500001D000D00901030E006F1BD009017D51A3
:100F60007D2BEA6A050FE96E090EEA22DFCFEFFF5B
:100F70003C0E09017D5D0DE30901010E416F090180
:100F80007E2B0901900E426F09017E2B0901030E91
:100F9000006F05D060D8DDDE02D0DBDE00D000C9F6
:100FA0008BF9060EE15C02E2E16AE552E16EE55280
:100FB000E7CFD9FF1200D9CFE6FFE1CFD9FF020E6C
:100FC000E12609017D05EA6A050FE96E090EEA22AC
:100FD000EFCFDFFF010EDB6A0901050506E0FF0E1A
:100FE0000901055D02E0000E2AD009017D05E66ECB
:100FF000050EE66E090EE66E9CD8E552E552E55206
:10100000E76E010EE7CFDBFF010EDB50DF5C0DE189
:1010100009017D0709017D51EA6A050FE96E090E94
:10102000EA22EF6A010E0BD00AD0FD0EDBCFE9FFFA
:10103000FE0EDBCFEAFF910EEF6E000E00D0106EB9
:10104000020EE15C02E2E16AE552E16E1050E55207
:10105000E7CFD9FF1200D9CFE6FFE1CFD9FF020ECB
:10106000E126DF6A010EDB6A7EC9E6FF410EE66E0D
:10107000090EE66E5ED8E552E552E552DF6E03C911
:10108000E6FFB5EC04F0E552010EDB6A09017E5182
:10109000F36E010EDBCFF4FFF350F45C0FE2010EB0
:1010A000DB50EA6A410FE96E090EEA22EF50E66E64
:1010B000B5EC04F0E552010EDB2AE8D7DFCFE6FFFE
:1010C000B5EC04F0E55204C9E6FFB5EC04F0E552D6
:1010D000F3EC04F0020EE15C02E2E16AE552E16E3B
:1010E000E552E7CFD9FF1200D9CFE6FFE1CFD9FF14
:1010F000FD0EDBCFF6FFFE0EDBCFF7FF0800F5504D
:1011000012E0FD0EDBCFF6FFFE0EDBCFF7FF08008F
:10111000F550E66EB5EC04F0E552FD0EDB2AFE0E4E
:1011200001E3DB2AE5D7F3EC04F0E552E7CFD9FF82
:101130001200D9CFE6FFE1CFD9FF030EE126DF6A27
:10114000010EDB6AFC0EDB50F36E010EDBCFF4FF09
:10115000F350F45C12E2010EDB50E76EFD0EDBCFC4
:10116000E9FFFE0EDBCFEAFFE750E926000EEA2298
:10117000EF50DF1A010EDB2AE5D7DF5000D0106EEA
:10118000030EE15C02E2E16AE552E16E1050E552C5
:06119000E7CFD9FF1200B9
:0A119600D9CFE6FFE1CFD9FFE65202
:1011A000DF6A040EDF5C15E2DFCFE6FFE66A9EEC45
:1011B00010F0E552E552E66EDF50EA6A070FE96E7D
:1011C000010EEA22E552E750EF6EE0EC11F0DF2A63
:1011D000E8D7040EE66EE66A9EEC10F0E552E552A2
:1011E0000101016F026BE0EC11F001C102F101019C
:1011F000016B050EE66EE66A9EEC10F0E552E552D4
:10120000106E116A105001010113115001010213F7
:10121000E0EC11F0C7D8040EE66EE66A070EE66E43
:10122000010EE66EC9EC02F0E552E552E552E552D8
:10123000040EE66E040EE66E030EE66E010EE66E1A
:10124000C9EC02F0E552E552E552E5520101010E0A
:10125000006FE552E552E7CFD9FF1200D9CFE6FF84
:10126000E1CFD9FF030EE126010100512EE0010A72
:1012700001E037D0E66A11EC0DF0E552010824E1F7
:1012800001010B5121E101010F0E015D270E0259F1
:1012900004E20101012B000E022384D8040EE66E45
:1012A000040EE66E030EE66E010EE66EC9EC02F069
:1012B000E552E552E552E5520101010E0B6F0101C5
:1012C000010E0D6F0101006B0DD0E66A11EC0DF0FF
:1012D000E552000905E101010B6B0101010E006FF0
:1012E00001D000D001010D052AE1010E01C1DBFF93
:1012F000020E02C1DBFF01010D6B010EDBCF10F00E
:10130000020EDBCF11F011C010F0116A1050E66E22
:10131000040EE66EE66AEDEC0FF0E552E552E5529A
:10132000E0EC11F0010EDBCFE6FF050EE66EE66A9B
:10133000EDEC0FF0E552E552E552E0EC11F0010161
:101340000C0526E101010C6BDF6A040EDF5C20E274
:10135000DF50EA6A070FE96E010EEA22EF50E66EEF
:10136000DFCFE6FFE66AEDEC0FF0E552E552E5521D
:10137000E0EC11F0E66A040EDF24E66EE66AEDECBE
:101380000FF0E552E552E552E0EC11F0DF2ADDD72F
:10139000030EE15C02E2E16AE552E16EE552E7CF5D
:1013A000D9FF1200D9CFE6FFE1CFD9FF030EE12626
:1013B000DF6A010E01C1DBFF020E02C1DBFFDF6A43
:1013C000040EDF5C33E2010EDBCF10F0020EDBCF48
:1013D00011F00A0E0B6E0C6A10C006F011C007F077
:1013E00082EC11F002C010F003C011F0300E102694
:1013F000000E1122DF50EA6A030FE96E010EEA22A5
:1014000010C0EFFFD950010FE96EDACFEAFF0A0EE4
:101410000B6E0C6AEECF06F0EDCF07F082EC11F008
:1014200006C0EEFF07C0EDFFDF2ACAD7030EE15C5E
:1014300002E2E16AE552E16EE552E7CFD9FF120020
:10144000D9CFE6FFE1CFD9FFE652DF6A040EDF5CB9
:101450000AE2DF50EA6A030FE96E010EEA22300E5B
:10146000EF6EDF2AF3D7E552E552E7CFD9FF12003E
:10147000D9CFE6FFE1CFD9FF030EE126FD0EDBCF8A
:10148000E9FFFE0EDBCFEAFF010EEFCFDBFF020E1E
:10149000DB6A010EDB50820A4BE0030A01E07ED0DA
:1014A0000101010E0C6F0101016B026B7BDF040E69
:1014B000E66E040EE66E030EE66E010EE66EC9ECF5
:1014C00002F0E552E552E552E552DF6A040EDF5CB8
:1014D00019E2DF28E76EFD0EDBCFE9FFFE0EDBCF62
:1014E000EAFFE750E926000EEA22EF50E66EDF50F1
:1014F000EA6A070FE96E010EEA22E552E750EF6E45
:10150000DF2AE4D7040EE66EE66A070EE66E010EE9
:10151000E66EC9EC02F0E552E552E552E552FB0EEB
:10152000DBCFE9FFFC0EDBCFEAFF810EEF6E36D09A
:101530000101010E0C6FDF6A040EDF5C19E2DF2887
:10154000E76EFD0EDBCFE9FFFE0EDBCFEAFFE750D3
:10155000E926000EEA22EF50E66EDF50EA6A070F36
:10156000E96E010EEA22E552E750EF6EDF2AE4D77A
:10157000040EE66EE66A070EE66E010EE66EC9EC34
:1015800002F0E552E552E552E552FB0EDBCFE9FFF2
:10159000FC0EDBCFEAFF820EEF6E00D0020EDB50B6
:1015A00000D0106E030EE15C02E2E16AE552E16EEA
:0A15B0001050E552E7CFD9FF1200FA
:0615BA00DACFE4FFE2CFEE
:1015C000DAFFE9CFE4FFEACFE4FFF6CFE4FFF7CF9D
:1015D000E4FFF5CFE4FFF3CFE4FFF4CFE4FFFACF6D
:1015E000E4FF00EE00F0100EE80403E3EECFE4FFAA
:1015F000FBD700EE10F0090EE80403E3EECFE4FFA2
:10160000FBD7E652F2940F010C2B000E0D230E2394
:101610000F230F01122B000E13230F01142B000EAA
:1016200015230F010251031107E005D003CFFAFF84
:101630000F010251F96EFADF00CFE6FF01CFE6FF9E
:101640004AEC11F0E552E552E55200EE18F0090EB1
:10165000E80403E3E5CFEDFFFBD700EE0FF0100E3B
:10166000E80403E3E5CFEDFFFBD7E5CFFAFFE5CFD5
:10167000F4FFE5CFF3FFE5CFF5FFE5CFF7FFE5CFCB
:10168000F6FFE5CFEAFFE5CFE9FFE5CFDAFF11008E
:10169000DACFE4FFE2CFDAFFE9CFE4FFEACFE4FFFD
:1016A000F6CFE4FFF7CFE4FFF5CFE4FFF3CFE4FF9D
:1016B000F4CFE4FFFACFE4FF00EE00F0100EE804F0
:1016C00003E3EECFE4FFFBD700EE10F0090EE804D1
:1016D00003E3EECFE4FFFBD7E6529E9004CFE6FF94
:1016E00005CFE6FF2EEC11F0E552E5520F01065151
:1016F000071107E005D007CFFAFF0F010651F96E79
:10170000FADFE55200EE18F0090EE80403E3E5CF36
:10171000EDFFFBD700EE0FF0100EE80403E3E5CF7A
:10172000EDFFFBD7E5CFFAFFE5CFF4FFE5CFF3FF01
:10173000E5CFF5FFE5CFF7FFE5CFF6FFE5CFEAFF11
:10174000E5CFE9FFE5CFDAFF1100DACFE4FFE2CF22
:10175000DAFFE9CFE4FFEACFE4FFF6CFE4FFF7CF0B
:10176000E4FFF5CFE4FFF3CFE4FFF4CFE4FFFACFDB
:10177000E4FF00EE00F0100EE80403E3EECFE4FF18
:10178000FBD700EE10F0090EE80403E3EECFE4FF10
:10179000FBD7E6529E9208CFBBFF0F010A510B11F7
:1017A00007E005D00BCFFAFF0F010A51F96EFADFFF
:1017B000E55200EE18F0090EE80403E3E5CFEDFF73
:1017C000FBD700EE0FF0100EE80403E3E5CFEDFFCA
:1017D000FBD7E5CFFAFFE5CFF4FFE5CFF3FFE5CF89
:1017E000F5FFE5CFF7FFE5CFF6FFE5CFEAFFE5CF61
:1017F000E9FFE5CFDAFF1100D9CFE6FFE1CFD9FF4E
:101800009F0EE66E66EC11F0E552FD0EDBCF00FF99
:10181000FE0EDBCF01FFFB0EDBCF02FFFC0EDBCFAA
:1018200003FFFD0EDBCFE6FFFE0EDBCFE6FF4AEC4B
:1018300011F0E552E552E552E7CFD9FF1200D9CFBA
:10184000E6FFE1CFD9FF040EE126F29A1CCFDFFFBD
:10185000010E1DCFDBFF020E1ECFDBFF030E1FCFDD
:10186000DBFFF28ADECF04F0DECF05F0DECF06F03C
:10187000DDCF07F0DD52DD5200D0040EE15C02E264
:10188000E16AE552E16EE552E7CFD9FF1200D9CF08
:10189000E6FFE1CFD9FF020EE126830EDF6EDE52B6
:1018A0000C0EDD6ECC6ACC9E070ECD6EFD0EDBCF2E
:1018B000E6FFFE0EDBCFE6FF2EEC11F0E552E5521F
:1018C0009F809D80FD0EDBCF04FFFE0EDBCF05FF6A
:1018D000FB0EDBCF06FFFC0EDBCF07FF020EE15C49
:1018E00002E2E16AE552E16EE552E7CFD9FF12006C
:1018F000D9CFE6FFE1CFD9FF0F0EBA6E9F829D824E
:10190000FE0EDB50BB6EFE0EDB500F01086F096B45
:10191000FC0EDBCF0AFFFD0EDBCF0BFFE552E7CF5E
:04192000D9FF1200D9
:0C192400D9CFE6FFE1CFD9FFE6528DD805
:10193000DF6A080EDF5C09E2DF50EA6A200FE96E19
:101940000F0EEA22EF6ADF2AF4D7E552E552E7CF1D
:10195000D9FF1200D9CFE6FFE1CFD9FF9BD8FC0E0B
:10196000DBCFE6FFFD0EDBCFE6FFFE0EDBCFE6FFB3
:10197000C0D8E552E552E552E552E7CFD9FF120053
:10198000D9CFE6FFE1CFD9FFE652FC0EDB50DF6E88
:10199000FB0EDB50D880DF541AE37CD8DFCFE6FFA4
:1019A000136ADF34FE0B1336126EFD0EDB50122469
:1019B000106EFE0EDB501320116E10C0E6FF11C03A
:1019C000E6FF97D8E552E552E552DF2AE1D7E55226
:1019D000E552E7CFD9FF1200D9CFE6FFE1CFD9FF1B
:1019E000E652DF6A57D8DF6A080EDF5C15E2DFCF08
:1019F000E6FF116ADF34FE0B1136106E280E10263A
:101A00000F0E112210C0E6FF11C0E6FF72D8E5529A
:101A1000E552E552DF2AE8D7E552E552E7CFD9FF94
:101A20001200D9CFE6FFE1CFD9FFFE0EEA6ADB3420
:101A3000FE0BEA36E96E280EE9260F0EEA22EF5079
:101A400000D0E552E7CFD9FF1200D9CFE6FFE1CFB2
:101A5000D9FFE652DF6A080EDF5C17E2EA6ADF347C
:101A6000FE0BEA36E96E280EE9260F0EEA22EF6A2F
:101A7000EA6ADF34FE0BEA36E96E280EE9260F0E1D
:101A8000EA22EE52EF6ADF2AE6D7E552E552E7CFC7
:101A9000D9FF12008150010B0F01206F8150020B02
:101AA00001E0010E0F01216F8150040B01E0010ED6
:101AB0000F01226F8150080B01E0010E0F01236F0F
:101AC0008150100B01E0010E0F01246F8150200B9B
:101AD00001E0010E0F01256F8150400B01E0010E66
:101AE0000F01266F8150800B01E0010E0F01276F5F
:101AF0001200D9CFE6FFE1CFD9FFFD0EDBCFE9FF22
:101B0000FE0EDBCFEAFFEF50010A3DE0010A01E0E3
:101B100074D0FC0EDB50EA6A200FE96E0F0EEA2249
:101B2000EF50010B27E1FD0EDBCFE9FFFE0EDBCF0F
:101B3000EAFFEE52EF2AFD0EDBCFE9FFFE0EDBCF10
:101B4000EAFFEECF10F0EFCF11F0020E0001115CB2
:101B500010E3FD0EDBCFE9FFFE0EDBCFEAFF010E47
:101B6000EF6EFD0EDBCFE9FFFE0EDBCFEAFFEE529C
:101B7000EF6A08D0FD0EDBCFE9FFFE0EDBCFEAFFF8
:101B8000EE52EF6A3BD0FC0EDB50EA6A200FE96EA2
:101B90000F0EEA22EF50010B010826E1FD0EDBCF0C
:101BA000E9FFFE0EDBCFEAFFEE52EF2AFD0EDBCFA0
:101BB000E9FFFE0EDBCFEAFFEECF10F0EFCF11F022
:101BC000020E0001115C0FE3FD0EDBCFE9FFFE0EFC
:101BD000DBCFEAFFEF6AFD0EDBCFE9FFFE0EDBCFC6
:101BE000EAFFEE52EF6A08D0FD0EDBCFE9FFFE0EF2
:101BF000DBCFEAFFEE52EF6A01D000D0E552E7CF2B
:041C0000D9FF1200F6
:0C1C0400D9CFE6FFE1CFD9FF080EE126A2
:101C1000DE6A240EDE6EF40EDE6EDD6ADD52DD520B
:101C2000DECF05F0DECF06F0DECF07F0DDCF08F027
:101C3000DD52DD52055007E1240E061804E1F40ED2
:101C4000071801E1085010E0055008E1900E061851
:101C500005E1D00E071802E1030E081801E000D0DC
:101C6000700ED36E9B8C04D0700ED36E9B9C00D0F4
:101C7000D9CFE9FFDACFEAFFEECF04F0EECF05F0DF
:101C8000EECF06F0EFCF07F0040E096E0A6A0B6A7A
:101C90000C6ACCEC10F0040E04C0DBFF050E05C08E
:101CA000DBFF060E06C0DBFF070E07C0DBFFD950C7
:101CB000040FE96EDACFEAFFE80E096E030E0A6E32
:101CC0000B6A0C6AEECF04F0EECF05F0EECF06F013
:101CD000EFCF07F0CCEC10F007C0EDFF06C0EDFF32
:101CE00005C0EDFF04C0EFFF13681468156A040E09
:101CF000DBCF16F0050EDBCF17F0186A1650135C19
:101D0000106E17501458116E18501558126E10C0DE
:101D100032FD11C033FDC26A0F01386B0F01396B00
:101D20000F013A6B0F013B6B0F013C6B9690956A6C
:101D30009290929292949296949094929494949673
:101D400093809382938493869388938C938C938EC1
:101D5000949C948EF19E080EE15C02E2E16AE552E9
:0A1D6000E16EE552E7CFD9FF120053
:061D6A00D9CFE6FFE1CF36
:101D7000D9FF050EE12602EC0EF0080EE66E51ECDE
:101D800000F0E552000EE66EE66A32CDE6FF33CD96
:101D9000E6FFFCEC0BF0E552E552E552E552A20EEF
:101DA000E66E010EE66E1E0EE66E78EC0CF0E55265
:101DB000E552E552700EE66E140EE66EDD0EE66E2E
:101DC000CC0EE66EBB0EE66EAA0EE66E75EC06F065
:101DD000106E060EE15E1050CBEC08F011EC00F036
:101DE000F40EDE6E010EDE6EDE6ADD6ADD52DD525D
:101DF000D9CFE9FFDACFEAFFEE500F010C5DEE50CC
:101E00000F010D59EE500F010E59EE500F010F59F1
:101E100007E30F010C6B0D6B0E6B0F6BBBEC11F03E
:101E20000F010F0E125D000E135907E30F01126B25
:101E3000136BECEC0CF0040EDB2A050EF36E040EB3
:101E4000DBCFF4FFF350F45C04E32EEC09F0040E56
:101E5000DB6AC0EC06F0CCD7050EE15C02E2E16A79
:0C1E6000E552E16EE552E7CFD9FF120019
:041E6C00DACFE4FFE6
:101E7000E2CFDAFFE9CFE4FFEACFE4FFF6CFE4FFF9
:101E8000F7CFE4FFF5CFE4FFF3CFE4FFF4CFE4FFB7
:101E9000FACFE4FF00EE00F0100EE80403E3EECF0B
:101EA000E4FFFBD700EE10F0090EE80403E3EECFE9
:101EB000E4FFFBD7E652D9CFE6FFE1CFD9FFE652E8
:101EC0000FEC11F0DF6E0B013F513F2BEA6A420F1E
:101ED000E96E0B0EEA22DFCFEFFF3C0E0B013F5DF8
:101EE00002E30B013F6B0B01412B9E9AE552E55239
:101EF000E7CFD9FFE55200EE18F0090EE80403E33E
:101F0000E5CFEDFFFBD700EE0FF0100EE80403E382
:101F1000E5CFEDFFFBD7E5CFFAFFE5CFF4FFE5CF47
:101F2000F3FFE5CFF5FFE5CFF7FFE5CFF6FFE5CF10
:0C1F3000EAFFE5CFE9FFE5CFDAFF110082
:041F3C00280EF66E07
:101F4000000EF76E000EF86E0D010900F5502B6FB4
:101F50000900F5502C6F03E12B6701D03DD009003B
:101F6000F550266F0900F550276F0900F550286FCE
:101F700009000900F550E96E0900F550EA6E090004
:101F800009000900F550296F0900F5502A6F090072
:101F90000900F6CF2DFDF7CF2EFDF8CF2FFD26CD72
:101FA000F6FF27CDF7FF28CDF8FF0D01295302E1F9
:101FB0002A5307E00900F550EE6E2907F8E22A07D8
:101FC000F9D72DCDF6FF2ECDF7FF2FCDF8FF0D0160
:0A1FD0002B07000E2C5BBFD7120098
:061FDA00D9CFE6FFDACFCB
:101FE000E6FFE1CFD9FFE2CFDAFFE652DF6AFD0E6E
:101FF000DBCF11F011C010F0030E1114AA6EFF0E0A
:10200000E76EFC0EDBCF10F0E7501016116A10508F
:10201000A96EFB0EDB50A86EA69EA69CA684F2506D
:10202000800B01E0010EDF6EF29E550EA76EAA0E28
:10203000A76EA682A6B2FED7DF50E8B0F28EE8A067
:10204000F29EA694E552E552E5CFDAFFE7CFD9FF3D
:0220500012007C
:0E205200D9CFE6FFDACFE6FFE1CFD9FFE2CF2C
:10206000DAFF726A716AFD0EDBB07288DBA202D001
:10207000728C718CDBB4728EDBA602D0718801D0B9
:10208000718ADBA802D0728401D07294DBBA7186A7
:10209000DBAC02D0A38A01D0A39ADBAE02D0A38826
:1020A00001D0A398FB0EDB50756EFC0EDBCF11F058
:1020B00011C010F0116A1050766E728A718EE5525E
:0A20C000E5CFDAFFE7CFD9FF1200E9
:0620CA00D9CFE6FFDACFDA
:1020D000E6FFE1CFD9FFE2CFDAFFAC6AAB6AFD0ED3
:1020E000DBB0AC88DBA202D0AC8CAB8CDBB4AC8EAA
:1020F000DBA602D0AB8801D0AB8ADBB8AC84DBBAFC
:10210000AB86DBAC02D09D8A01D09D9ADBAE02D0BB
:102110009D8801D09D98FB0EDB50AF6EFC0EDBCF8F
:1021200011F011C010F0116A1050B06EAC8AAB8E75
:0C213000E552E5CFDAFFE7CFD9FF12003F
:04213C00D9CFE6FF12
:10214000DACFE6FFE1CFD9FFE2CFDAFFFC0EDBCF3B
:1021500010F0FD0EDBCF11F011C010F0116A030E6C
:102160001014AA6EFF0EE76EFC0EDBCF10F0FD0E12
:10217000DBCF11F0E7501016116A1050A96EA69C23
:10218000A69EA68000000000A85000D0E552E5CF32
:08219000DAFFE7CFD9FF1200CE
:08219800036A026A016A006A91
:1021A000200EE76ED8900436053606360736003620
:1021B0000136023603360950005C0A5001580B50B4
:1021C00002580C50035809E30950005E0A50015AA6
:1021D0000B50025A0C50035A042AE72EE4D712007F
:1021E000D9CFE6FFDACFE6FFE1CFD9FFE2CFDAFFC2
:1021F000E652F20E0D01341771AC03D0349171B078
:10220000348171B4348571B234877450DF6EDF501D
:0E221000E552E552E5CFDAFFE7CFD9FF120025
:02221E00D9CF16
:10222000E6FFDACFE6FFE1CFD9FFE2CFDAFFE652F1
:10223000F20E0D013517ABAC03D03591ABB0358143
:10224000ABB43585ABB23587AE50DF6EDF50E552AB
:0C225000E552E5CFDAFFE7CFD9FF12001E
:04225C00D9CFE6FFF1
:10226000DACFE6FFE1CFD9FFE2CFDAFFE652E6525E
:10227000FC0EDBCFDEFFDBCFDDFF010EDB50CF6ED0
:10228000DF50CE6EE552E552E552E5CFDAFFE7CFFB
:04229000D9FF120060
:0C229400D9CFE6FFDACFE6FFE1CFD9FF9B
:1022A000E2CFDAFFE652E652FC0EDBCFDEFFDBCFF9
:1022B000DDFF010EDB50D76EDF50D66EE552E552E2
:0C22C000E552E5CFDAFFE7CFD9FF1200AE
:0422CC00D9CFE6FF81
:1022D000DACFE6FFE1CFD9FFE2CFDAFFFD0EDB5028
:1022E0007F0BD56ED76AD66AF294FD0EDBAE02D0B4
:1022F000F28A01D0F29AD58EE552E5CFDAFFE7CF28
:04230000D9FF1200EF
:0C230400036A026A100EE76ED8900636DD
:102310000736023603360B50025C0C50035805E3B7
:102320000B50025E0C50035A062AE72EF0D712001B
:10233000FF0EE350196E480E01D04C0EE76EE72EEB
:10234000FED7E76AE72EFED7192EF7D70000120056
:10235000380EF36E00EE00F00F0E01D81200EA60A6
:1023600002D0EE6AFCD7F350E9601200EE6AFCD7A7
:102370000D01376B12000D01370504E10D01376BBC
:0E238000849004D00D01010E376F848012008E
:02238E0010EE4F
:1023900060F020EE60F0F86A0F9C9EEC0FF003EC0A
:0A23A00000F0B5EC0EF0FBD71200C0
:0623AA00FF0EE350E84EB7
:1023B0001200000000D000D000D0E82EFAD71200A2
:0623C000A6B2FED71200D8
:0A23C600000000000000000000000D
:1023D00000000000000000000000000000000000FD
:1023E00000000000000000000000000000000000ED
:1023F00000000000000000000000000000000000DD
:1024000000000000000000000000000000000000CC
:1024100000000000000000000000000000000000BC
:1024200000000000000000000000000000000000AC
:10243000000000000000000000000000000000009C
:042440000000000098
:0C2444000000000000000000000000008C
:0C24500000000000000000000000000080
:04245C00000000007C
:10246000000000000000000000000000000000006C
:072470000000000000000065
:092477000000000000000000005C
:10248000000000000000000000000000000000004C
:10249000000000000000000000000000000000003C
:1024A000000000000000000000000000000000002C
:1024B000000000000000000000000000000000001C
:1024C000000000000000000000000000000000000C
:1024D00000000000000000000000000000000000FC
:1024E00000000000000000000000000000000000EC
:1024F00000000000000000000000000000000000DC
:03250000000000D8
:0D25030000000000000000000000000000CB
:0125100000CA
:0F251100000000000000000000000000000000BB
:102520000000000000000000000000C800000000E3
:0125300000AA
:0125310000A9
:0B2532003F065B4F666D7D077F6F006A
:02253D00FFFF9E
:01253F00009B
:01254000009A
:020000040030CA
:0100010008F6
:0100020001FC
:0100030024D8
:01000500BD3D
:010006008079
:010008000FE8
:01000900C036
:01000A000FE6
:01000B00E014
:01000C000FE4
:01000D0040B2
:00000001FF
